:100000000C9446000C9452000C9452000C94520034
:100010000C9452000C9452000C9452000C94520018
:100020000C9452000C9452000C9452000C94520008
:100030000C9452000C9452000C9452000C945200F8
:100040000C9452000C9452000C9452000C945200E8
:100050000C9452000C9452000C9452000C945200D8
:100060000C9452000C9452000C9452000C945200C8
:100070000C9452000C9452000C9452000C945200B8
:100080000C9452000C9452000C94520011241FBE88
:10009000CFEFD0E1DEBFCDBF0E9454000C945000E2
:0400A000F894FFCF02
:0400A4000C940000B8
:0200A800FFCF88
:00000001FF
