:100000000C9446000C94A3000C94A3000C94A30041
:100010000C94A3000C94A3000C94A3000C94A300D4
:100020000C94A3000C94A3000C94A3000C94A300C4
:100030000C94A3000C94A3000C94A3000C94A300B4
:100040000C94A3000C94A3000C94A3000C94A300A4
:100050000C94A3000C94A3000C94A3000C94A30094
:100060000C94A3000C94A3000C94A3000C94A30084
:100070000C94A3000C94A3000C94A3000C94A30074
:100080000C94A3000C94A3000C94A30011241FBE95
:10009000CFEFD0E1DEBFCDBF0E9452000C945000E4
:0400A000F894FFCF02
:1000A4008FEF81BBE12CF12C00E010E0C0E0D0E048
:1000B40003C0EC0101C0EC0184E690E00E949400CE
:1000C400CE018C599F4F989B07C0012B19F000E07B
:1000D40010E002C001E010E00115110589F08A3F2B
:1000E40091053CF3EF2821F012BAE12CF12C05C064
:1000F40080E882BBEE24E394F12CC659D109DCCF0D
:10010400883E23E09207BCF2EF2821F012BAE12CDA
:10011400F12C05C080E882BBEE24E394F12CC45892
:04012400D340CACF2B
:1001280020E030E008C0EFECF7E03197F1F700C0CD
:0E01380000002F5F3F4F28173907ACF30895E2
:040146000C94000015
:00000001FF
