:100000000C9446000C9479000C9479000C947900BF
:100010000C9479000C9479000C9479000C9479007C
:100020000C9479000C9479000C9479000C9479006C
:100030000C9479000C9479000C9479000C9479005C
:100040000C9479000C9479000C9479000C9479004C
:100050000C9479000C9479000C9479000C9479003C
:100060000C9479000C9479000C9479000C9479002C
:100070000C9479000C9479000C9479000C9479001C
:100080000C9479000C9479000C94790011241FBE13
:10009000CFEFD0E1DEBFCDBF0E9452000C945000E4
:0400A000F894FFCF02
:1000A4008FEF81BBC8EED3E002C0C8EED3E080E896
:1000B40082BBCE010E946A0012BACE010E946A007D
:1000C400989BF5CFC83ED34081F7C0EADFE0EFCF7D
:1000D40020E030E008C0EFECF7E03197F1F700C022
:0E00E40000002F5F3F4F28173907ACF3089537
:0400F2000C9400006A
:00000001FF
