:100000000C9446000C94B0000C94B0000C94B0001A
:100010000C94B0000C94B0000C94B0000C94B000A0
:100020000C94B0000C94B0000C94B0000C94B00090
:100030000C94B0000C94B0000C94B0000C94B00080
:100040000C94B0000C94B0000C94B0000C94B00070
:100050000C94B0000C94B0000C94B0000C94B00060
:100060000C94B0000C94B0000C94B0000C94B00050
:100070000C94B0000C94B0000C94B0000C94B00040
:100080000C94B0000C94B0000C94B00011241FBE6E
:10009000CFEFD0E1DEBFCDBF0E9452000C945000E4
:0400A000F894FFCF02
:1000A4008FEF81BBE12CF12CC12CD12C00E010E0AE
:1000B400C0E0D0E003C0EC0101C0EC018AE090E0B4
:1000C4000E94A100CE010A96989B0BC0E114F10492
:1000D40081F4012B49F0EE24E394F12C00E010E0CC
:1000E40008C0E12CF12C05C0EE24E394F12C01E0CE
:1000F40010E00115110589F08A3F9105E4F2CD283D
:1001040021F012BAC12CD12C05C080E882BBCC24CA
:10011400C394D12CC05FD109D1CF883E23E092078C
:1001240064F2CD2821F012BAC12CD12C05C080E88C
:0E01340082BBCC24C394D12CCE5DD340BFCF70
:1001420020E030E008C0EFECF7E03197F1F700C0B3
:0E01520000002F5F3F4F28173907ACF30895C8
:040160000C940000FB
:00000001FF
