:100000000C9446000C9475000C9475000C947500CB
:100010000C9475000C9475000C9475000C9475008C
:100020000C9475000C9475000C9475000C9475007C
:100030000C9475000C9475000C9475000C9475006C
:100040000C9475000C9475000C9475000C9475005C
:100050000C9475000C9475000C9475000C9475004C
:100060000C9475000C9475000C9475000C9475003C
:100070000C9475000C9475000C9475000C9475002C
:100080000C9475000C9475000C94750011241FBE1F
:10009000CFEFD0E1DEBFCDBF0E9452000C945000E4
:0400A000F894FFCF02
:1000A400109261008FEF8ABB83EE87B986E886B928
:1000B40086B1806486B93699FECF85B18BBB84EF57
:0800C40091E00E946600F4CFF8
:1000CC0020E030E008C0EFECF7E03197F1F700C02A
:0E00DC0000002F5F3F4F28173907ACF308953F
:0400EA000C94000072
:00000001FF
