:100000000C944A000C94A8000C94A8000C94A8002E
:100010000C94A8000C94A8000C94A8000C94A800C0
:100020000C94A8000C94A8000C94A8000C94A800B0
:100030000C94A8000C94A8000C94A8000C94A800A0
:100040000C94A8000C94A8000C94A8000C94A80090
:100050000C94A8000C94A8000C94A8000C94A80080
:100060000C94A8000C94A8000C94A8000C94A80070
:100070000C94A8000C94A8000C94A8000C94A80060
:100080000C94A8000C94A8000C94A8000100010F87
:100090000001540011241FBECFEFD0E1DEBFCDBF61
:1000A000ECE8F0E040E019C0B791A79137912791B3
:1000B000079107FD0EC097918791EF01F92FE82F67
:1000C0000BBF07900D92A217B307D9F7FE011BBE15
:1000D00004C01D92A217B307E1F7E339F40721F733
:0C00E0000E9476000C947400F894FFCF8E
:1000EC008FEF81BBC0E084EF91E00E948A00D0E0EA
:1000FC00CE01880F991FC80FD91FC050DF4FE88160
:08010C00F9810995CA81EFCFCA
:1001140020E030E008C0EFECF7E03197F1F700C0E1
:0E01240000002F5F3F4F28173907ACF30895F6
:0601320080E282BB08958B
:0601380080E482BB089583
:06013E0080E182BB089580
:0601440080E882BB089573
:06014A0088E082BB08956D
:040150000C9400000B
:0F015400A200029900039C00019F0004A5000077
:0400000300000144B4
:00000001FF
