:100000000C9446000C9489000C9489000C9489008F
:100010000C9489000C9489000C9489000C9489003C
:100020000C9489000C9489000C9489000C9489002C
:100030000C9489000C9489000C9489000C9489001C
:100040000C9489000C9489000C9489000C9489000C
:100050000C9489000C9489000C9489000C948900FC
:100060000C9489000C9489000C9489000C948900EC
:100070000C9489000C9489000C9489000C948900DC
:100080000C9489000C9489000C94890011241FBEE3
:10009000CFEFD0E1DEBFCDBF0E9452000C945000E4
:0400A000F894FFCF02
:1000A4008FEF81BBC0E084EF91E00E947A00C23000
:1000B40099F028F4CC2341F0C13051F0F4CFC3308F
:1000C40079F0C43089F0EFCF80E882BBC2E0EBCF97
:1000D40080E282BBC3E0E7CF80E482BBC1E0E3CF30
:1000E40080E182BBC4E0DFCF88E082BBC0E0DBCF2D
:1000F40020E030E008C0EFECF7E03197F1F700C002
:0E01040000002F5F3F4F28173907ACF3089516
:040112000C94000049
:00000001FF
