:100000000C944C000C9406010C9406010C9406010F
:100010000C9406010C9406010C9406010C94060144
:100020000C9406010C9406010C9406010C94060134
:100030000C9406010C9406010C9406010C94060124
:100040000C9406010C9406010C9406010C94060114
:100050000C9406010C9406010C9406010C94060104
:100060000C9406010C9406010C9406010C940601F4
:100070000C9406010C9406010C9406010C940601E4
:100080000C9406010C9406010C9406010100012D4C
:10009000000210012D012E8011241FBECFEFD0E1F0
:1000A000DEBFCDBFECE8F0E040E019C0B791A7910A
:1000B00037912791079107FD0EC097918791EF0126
:1000C000F92FE82F0BBF07900D92A217B307D9F7AE
:1000D000FE011BBE04C01D92A217B307E1F7E83969
:1000E000F40721F70E94B2000C947600F894FFCF39
:1000F000CF93DF93C82FD0E040912D0150E0DE0177
:10010000AA0FBB1FAC0FBD1FCA01880F991F880F14
:10011000991F880F991F480F591FA40FB51FA05092
:10012000BF4FED91FC91309709F0099520912D0179
:1001300030E0FE01EE0FFF1FCE0FDF1FF901EE0FC3
:10014000FF1FEE0FFF1FEE0FFF1F2E0F3F1FFE01C1
:10015000E20FF31FE050FF4F828180932D01DF916A
:04016000CF9108959E
:100164008FEF81BB0E940001E12CF12C00E010E034
:10017400C0E0D0E002C0E12CF12C8AE090E00E94C3
:10018400E8009D9B08C0209741F482E00E9478001B
:10019400C1E0D0E002C0C0E0D0E09E9B09C00115E0
:1001A400110541F481E00E94780001E010E002C0F2
:1001B40000E010E09F9BDFCFE114F104F1F680E052
:0C01C4000E947800EE24E394F12CD7CFC9
:1001D00020E030E008C0EFECF7E03197F1F700C025
:0E01E00000002F5F3F4F28173907ACF308953A
:0601EE0080E482BB0895CD
:0601F40080E282BB0895C9
:0601FA0080E182BB0895C4
:0602000080E882BB0895B6
:0602060088E082BB0895B0
:04020C000C9400004E
:10021000000100F70001FA0002000100F70001FAF6
:100220000002000100F70001FD00030001000301CE
:0D02300004030104000100030104030104A4
:0400000300000200F7
:00000001FF
