:100000000C944A000C94BE000C94BE000C94BE00EC
:100010000C94BE000C94BE000C94BE000C94BE0068
:100020000C94BE000C9476000C94BE000C94BE00A0
:100030000C94BE000C94BE000C94BE000C94BE0048
:100040000C94BE000C94BE000C94BE000C94BE0038
:100050000C94BE000C94BE000C94BE000C94BE0028
:100060000C94BE000C94BE000C94BE000C94BE0018
:100070000C94BE000C94BE000C94BE000C94BE0008
:100080000C94BE000C94BE000C94BE000100010252
:100090000001800011241FBECFEFD0E1DEBFCDBF35
:1000A000ECE8F0E040E019C0B791A79137912791B3
:1000B000079107FD0EC097918791EF01F92FE82F67
:1000C0000BBF07900D92A217B307D9F7FE011BBE15
:1000D00004C01D92A217B307E1F7E339F40721F733
:0C00E0000E94B5000C947400F894FFCF4F
:1000EC001F920F920FB60F9211248F939F9395B37B
:1000FC0081E0892785BB80910001909101010197D6
:10010C0039F485E783BD109201011092000108C0FB
:10011C0083EC83BD81E090E090930101809300011A
:0E012C009F918F910F900FBE0F901F9018950E
:10013A0020E030E008C0EFECF7E03197F1F700C0BB
:0E014A0000002F5F3F4F28173907ACF30895D0
:1001580085E783BD87B7806887BF78948DE085BDC4
:020168000895F8
:10016A008FEF84BB0E94AC008AE090E00E949D0061
:02017A00FBCFB9
:04017C000C940000DF
:0201800001007C
:00000001FF
