:100000000C9446000C9473000C9473000C947300D1
:100010000C9473000C9473000C9473000C94730094
:100020000C9473000C9473000C9473000C94730084
:100030000C9473000C9473000C9473000C94730074
:100040000C9473000C9473000C9473000C94730064
:100050000C9473000C9473000C9473000C94730054
:100060000C9473000C9473000C9473000C94730044
:100070000C9473000C9473000C9473000C94730034
:100080000C9473000C9473000C94730011241FBE25
:10009000CFEFD0E1DEBFCDBF0E9452000C945000E4
:0400A000F894FFCF02
:1000A4008FEF81BB989B0CC080E882BB84EF91E00A
:1000B4000E94640012BA84EF91E00E946400F2CFBF
:0400C40012BAF0CFAD
:1000C80020E030E008C0EFECF7E03197F1F700C02E
:0E00D80000002F5F3F4F28173907ACF3089543
:0400E6000C94000076
:00000001FF
