:100000000C9446000C940A010C940A010C940A0109
:100010000C940A010C940A010C940A010C940A0134
:100020000C940A010C940A010C940A010C940A0124
:100030000C940A010C940A010C940A010C940A0114
:100040000C940A010C940A010C940A010C940A0104
:100050000C940A010C940A010C940A010C940A01F4
:100060000C940A010C940A010C940A010C940A01E4
:100070000C940A010C940A010C940A010C940A01D4
:100080000C940A010C940A010C940A0111241FBE5D
:10009000CFEFD0E1DEBFCDBF0E945A000C945000DC
:0400A000F894FFCF02
:1000A4005965646920796F752061726500000000EC
:1000B400CF93DF93CDB7DEB760970FB6F894DEBF6A
:1000C4000FBECDBF0E94FE0024EA30E040E08DE088
:1000D400F901DE011196742F0E94E300FE013E96A1
:1000E40083E0DF011D928A95E9F7CE0101960E9413
:1000F400070182E090E00E940301CE0101960E9474
:100104000701BFE72AE186E0B15020408040E1F7D3
:0601140000C00000F6CF60
:10011A00CF938FEF84BB15BAC0E2C5BB0E94AC0077
:10012A00C5BB0E94AC0080E885BB0E94AC0015BA32
:10013A000E94AC0080EF85BB0E94AC0015BA0E94F9
:0E014A00AC0080E685BB0E94AC00CF9108950A
:1001580085B3886085BB8FEC97E00197F1F700C005
:10016800000085B3877F85BB8FEC97E00197F1F797
:0601780000C00000089524
:10017E00CF93C82F85BB85B3846085BB0E94AC002E
:10018E00C295C07FC5BB85B3846085BB0E94AC00A1
:04019E00CF91089560
:1001A200CF93C82F85BB85B38B7F85BB0E94AC00E4
:1001B200C295C07FC5BB85B38B7F85BB0E94AC0057
:0401C200CF9108953C
:1001C600992777FD06C07BBF07900D920197E1F74F
:0C01D600089501900D920197E1F7089543
:1001E200CF93DF93EC0103C00E94BF002196888168
:0A01F2008111FACFDF91CF9108953B
:0A01FC008FEF81BB0E948D00089573
:0802060080680E94D1000895F8
:06020E000E94F1000895BA
:040214000C94000046
:00000001FF
