:100000000C9446000C94B2000C94B2000C94B20014
:100010000C94B2000C94B2000C94B2000C94B20098
:100020000C94B2000C94B2000C94B2000C94B20088
:100030000C94B2000C94B2000C94B2000C94B20078
:100040000C94B2000C94B2000C94B2000C94B20068
:100050000C94B2000C94B2000C94B2000C94B20058
:100060000C94B2000C94B2000C94B2000C94B20048
:100070000C94B2000C94B2000C94B2000C94B20038
:100080000C94B2000C94B2000C94B20011241FBE68
:10009000CFEFD0E1DEBFCDBF0E945A000C945000DC
:0400A000F894FFCF02
:1000A4003F065B4F666D7D077F6F777C395E7971A4
:1000B4008FEF81BB14BAC12CD12CE12CF12C00E0C0
:1000C40010E0C0E0D0E0989B07C00115110531F4A1
:1000D400219601E010E002C000E010E0999B08C006
:1000E400E114F10439F42197EE24E394F12C02C0D5
:1000F400E12CF12C83B3837021F0C114D10421F0DD
:1001040008C0C12CD12C05C0CC24C394D12CC0E090
:10011400D0E0CE010D2E000CAA0B8C559F4FAF4F93
:10012400FC015A2F0E94AB0062BB82E390E00E9464
:040134009C00C9CF93
:1001380020E030E008C0EFECF7E03197F1F700C0BD
:0E01480000002F5F3F4F28173907ACF30895D2
:0E01560057FD03C05BBF679108956081089557
:040164000C940000F7
:00000001FF
