:100000000C9446000C9476010C9476010C947601C5
:100010000C9476010C9476010C9476010C94760184
:100020000C9476010C9476010C9476010C94760174
:100030000C9476010C9476010C9476010C94760164
:100040000C9476010C9476010C9476010C94760154
:100050000C9476010C9476010C9476010C94760144
:100060000C9476010C9476010C9476010C94760134
:100070000C9476010C9476010C9476010C94760124
:100080000C9476010C9476010C94760111241FBE19
:10009000CFEFD0E1DEBFCDBF0E94D5000C94500061
:0400A000F894FFCF02
:1000A400CF92DF92EF92FF920F931F93CF93DF9340
:1000B400EC0199233CF4D195C195D109EE24E39444
:1000C400F12C02C0E12CF12C0AE010E0CE01B801C1
:1000D4000E9406016B01682F81E00E942E01C60177
:1000E400B8010E940601682F82E00E942E01CE0111
:1000F40064E670E00E940601CB01B8010E9406018B
:10010400682F83E00E942E01CE0168EE73E00E9406
:100114000601EF2829F06AE084E00E942E0109C05C
:10012400CB016AE070E00E940601682F84E00E941F
:100134002E01DF91CF911F910F91FF90EF90DF90EF
:04014400CF900895BB
:1001480080E00E94500189E00E9472018FEF0E94B6
:10015800720180E00E94670180E00E9450018AE0FD
:100168000E9472018FE00E94720180E00E94670184
:1001780080E00E9450018BE00E94720183E00E949F
:10018800720180E00E94670180E00E9450018CE0CB
:100198000E94720181E00E94720180E00E94670162
:0201A8000895B8
:1001AA00CF9381E087BB0E945C010E94A400C1E05A
:1001BA0005C060E08C2F0E942E01CF5FC530C8F3C6
:1001CA0088EE93E00E944101C1E009C06C2F8C2F98
:1001DA000E942E0188EE93E00E944101CF5FC53054
:1001EA00A8F388EE93E00E94410185E89AE10E9413
:1001FA0052008AE59DEF0E94520081E090E0CF9183
:02020A00089555
:10020C0097FB072E16F4009407D077FD09D00E94B7
:10021C001A0107FC05D03EF4909581959F4F0895E7
:08022C00709561957F4F089564
:10023400AA1BBB1B51E107C0AA1FBB1FA617B70708
:1002440010F0A61BB70B881F991F5A95A9F7809524
:080254009095BC01CD01089555
:10025C00CF93DF93D82FC62F80E00E9450018D2FB3
:10026C000E9472018C2F0E94720180E00E94670133
:06027C00DF91CF9108950F
:1002820020E030E008C0EFECF7E03197F1F700C072
:0E02920000002F5F3F4F28173907ACF3089587
:1002A00098B321E030E002C0220F331F8A95E2F7B5
:0802B0002095292328BB0895C5
:1002B8008FEF87BB87B3877F87BB88B3816088BB95
:0602C80082E58DB90895E6
:1002CE0098B321E030E002C0220F331F8A95E2F787
:0602DE00292B28BB089546
:0802E4008FB9779BFECF08954E
:0402EC000C9400006E
:00000001FF
