:100000000C9452000C9470090C9470090C947009B3
:100010000C9470090C9470090C9470090C9470097C
:100020000C9470090C9470090C9470090C9470096C
:100030000C9470090C9470090C9470090C9470095C
:100040000C9470090C9470090C9470090C9470094C
:100050000C9470090C9470090C9470090C9470093C
:100060000C9470090C9470090C9470090C9470092C
:100070000C9470090C9470090C9470090C9470091C
:100080000C9470090C9470090C9470090100011211
:10009000800112024A0012E4024A034A80034A0322
:1000A0004E00141C11241FBECFEFD0E1DEBFCDBF28
:1000B000ECE8F0E040E019C0B791A79137912791A3
:1000C000079107FD0EC097918791EF01F92FE82F57
:1000D0000BBF07900D92A217B307D9F7FE011BBE05
:1000E00004C01D92A217B307E1F7E43AF40721F721
:0C00F0000E947E000C947C00F894FFCF6E
:1000FC00CF93DF93CDB7DEB7CA55D1400FB6F89486
:10010C00DEBF0FBECDBF0E9466090E944E0980EE75
:10011C000E94440981E20E9444090E946C090E94D9
:10012C004E0980EE0E94440980EA0E9444090E9414
:10013C006C090E944E0980EE0E94440983EE0E94D5
:10014C0044090E946C090E944E0980EE0E944409E9
:10015C0081E80E9444090E946C0960E070E080E034
:10016C0090E00E94ED0660E070E082E090E00E947A
:10017C00ED0660E070E084E090E00E94ED0660E047
:10018C0070E086E090E00E94ED0660E070E088E0B0
:10019C0090E00E94ED0660E070E08AE090E00E9442
:1001AC00ED0660E070E08CE090E00E94ED0660E00F
:1001BC0070E08EE090E00E94ED061092610081EEFE
:1001CC0087B986E886B985E08EBDE0E0F1E084E091
:1001DC0090E09183808381E090E0938382831092FE
:1001EC0011011092100188E0E2E1F1E0DE011996B4
:1001FC0001900D928A95E1F788E0EAE1F1E0DE01E9
:10020C00519601900D928A95E1F788E0E2E2F1E0D7
:10021C00DE01599601900D928A95E1F788E0EAE2A9
:10022C00F1E0DE01919601900D928A95E1F788E05C
:10023C00E2E3F1E0DE01999601900D928A95E1F7E7
:10024C0088E0EAE3F1E0DE01D19601900D928A9507
:10025C00E1F788E0E2E4F1E0DE01D99601900D923D
:10026C008A95E1F7CE01099623969FAF8EAF23971F
:10027C00089625969FAF8EAF2597089627969FAF29
:10028C008EAF2797089629969FAF8EAF2997089621
:10029C002B969FAF8EAF2B9708962D969FAF8EAF58
:1002AC002D9708962F969FAF8EAF2F9780EE87B91C
:1002BC0086B1806486B93699FECF25B130E081EEE7
:1002CC0087B986B1806486B93699FECF85B190E046
:1002DC00229FA001239F500D500D1124849F90014B
:1002EC00859F300D949F300D1124AC01429FC001AD
:1002FC00439F900D529F900D11240E9472040E94F6
:10030C006E0467E070E00E947907FC01EE0FFF1F9E
:10031C0081E490E08C0F9D1FE80FF91F0190F08194
:10032C00E02D808191819A838983828193819C8342
:10033C008B83848195819E838D8386819781988719
:10034C008F83CC24C394D12C80EE87B986B1806482
:10035C0086B93699FECFE5B0F12C81EE87B986B11E
:10036C00806486B93699FECF05B110E020E030E00C
:10037C000FC0C901880F991FFC01E653FD4F408146
:10038C005181FC01E65BFD4F518340832F5F3F4F52
:10039C002034310574F3E0911001F0911101EE0F4E
:1003AC00FF1F41E050E04C0F5D1FE40FF51F019063
:1003BC00F081E02D80E091E009955FEBE516F1040A
:1003CC006CF180E091E00E94D805892B09F455C0AE
:1003DC0081E090E0C15BDE4F99838883CF54D1409C
:1003EC00CF5ADE4F19821882C155D140C15BDE4F06
:1003FC00288139814A815B81CF54D14060E071E022
:10040C008AEC92E00E947B04892BB9F5E0E0F1E0E4
:10041C00808191810196918380832FC09CE3E916A2
:10042C00F1045CF580E091E00E945606892B29F1DD
:10043C004FEF5FEFCD5ADE4F59834883C355D14000
:10044C00CB5ADE4F19821882C555D140CD5ADE4F9A
:10045C00288139814A815B81C355D14060E071E0CC
:10046C008AEC92E00E947B04892B39F4E0E0F1E005
:10047C00808191810197918380830F3B11050CF44E
:10048C0051C00091100110911101C8010196909377
:10049C00110180931001049724F010921101109215
:1004AC001001E0911001F0911101EE0FFF1F81E09E
:1004BC0090E08C0F9D1FE80FF91F0190F081E02D4B
:1004CC0080E091E00995812C912CA12CB12CA501F7
:1004DC00940160E071E08AEC92E00E947B041816B3
:1004EC0019066CF080E091E00E942C06892B39F003
:1004FC0080E091E00E940206892B09F077C01093EE
:10050C00110100931001000F111FE1E0F0E0EC0F5E
:10051C00FD1FE00FF11F0190F081E02D80E091E0D4
:10052C00099564C00C3311050CF060C000911001EA
:10053C0010911101C8010197909311018093100142
:10054C00992334F483E090E090931101809310018F
:10055C00E0911001F0911101EE0FFF1F41E050E00E
:10056C004C0F5D1FE40FF51F0190F081E02D80E032
:10057C0091E00995C95ADE4F19821882C755D140AE
:10058C00C75ADE4F19821882C955D140C95ADE4F5D
:10059C00288139814A815B81C755D14060E071E087
:1005AC008AEC92E00E947B041816190664F080E035
:1005BC0091E00E942C06892B31F080E091E00E94A2
:1005CC000206892B99F41093110100931001F80184
:1005DC00EE0FFF1F81E090E08C0F9D1FE80FF91FBD
:1005EC000190F081E02D80E091E009958CB59DB5EE
:1005FC008135914308F4B0C01DBC1CBCC114D1049E
:10060C0051F1412C512C66246394712CA30192015D
:10061C0060E071E08AEC92E00E947B04892B79F017
:10062C0060E071E08AE492E00E946B0560E071E0AA
:10063C008AEC92E00E946B05C12CD12C0CC0E0E03E
:10064C00F1E082819381019693838283BF018AE4D6
:10065C0092E00E946B05E12CF12C13C008E010E035
:10066C000E191F09B8018AEC92E00E941F05892B14
:10067C0029F0B8018AEC92E00E94A6054FEFE41A2B
:10068C00F40A57E0E516F1044CF3C114D10409F057
:10069C0069C061E070E08AEC92E00E94C103892B92
:1006AC0039F180E8EAE4F1E0DE01A153BF4F01909B
:1006BC000D928A95E1F780E8EAECF1E0DE01A15BAE
:1006CC00BF4F01900D928A95E1F7CE0181539F4F58
:1006DC000E94CE0484EF91E00E941B09CE01815B45
:1006EC009F4F0E94CE0484EF91E00E941B09EDCF36
:1006FC00E0E0F1E084E090E09183808381E090E0A1
:10070C009383828310921101109210010E946E0447
:10071C0067E070E00E947907FC01EE0FFF1F81E497
:10072C0090E08C0F9D1FE80FF91F0190F081E02DD8
:10073C00808191819A838983828193819C838B832D
:10074C00848195819E838D838681978198878F8301
:10075C00CC24C394D12C06C060E071E08AE492E012
:10076C000E946B058AE492E00E94CE0484E690E03D
:06077C000E941B09E9CDFB
:100782000F931F93CF93DF93EC018B01AB0161E0D9
:1007920070E00E941507892BC9F5A80162E070E09C
:1007A200CE010E941507892BA1F5A80163E070E034
:1007B200CE010E941507892B79F5A80164E070E04B
:1007C200CE010E941507892B51F5A80165E070E062
:1007D200CE010E941507892B29F5A80166E070E079
:1007E200CE010E941507892B01F5A80167E070E090
:1007F200CE010E941507892BD9F4A80168E070E0A8
:10080200CE010E9415070097B1F417C081E090E075
:1008120014C081E090E011C081E090E00EC081E060
:1008220090E00BC081E090E008C081E090E005C05C
:1008320081E090E002C081E090E0DF91CF911F91D2
:040842000F91089575
:100846008F929F92AF92BF92CF92DF92EF92FF92DA
:10085600CF93DF93EC01688179818A819B81611551
:1008660071058105910521F464E279ED8BE597E048
:100876002DE133EF41E050E00E94D60649015A01CE
:100886009B01AC01A7EAB1E40E9439096B017C0126
:10089600ACEEB4EFA50194010E946109DC01CB0125
:1008A6008C0D9D1DAE1DBF1DB7FF03C00197A1098D
:1008B600B04888839983AA83BB839F77DF91CF91C2
:1008C600FF90EF90DF90CF90BF90AF909F908F906A
:1008D60008950C9423048AE493E00C942304A0E086
:1008E600B0E0EAE4F3E080839183A283B3830895C2
:1008F6002F923F924F925F926F927F928F929F922A
:10090600AF92BF92CF92DF92EF92FF920F931F9317
:10091600CF93DF931C016B0129013A01FB01828011
:100926009380A080B18089019A01A401B5010E943B
:10093600BD067C01C1E0D0E017C0FE01EE0FFF1F2F
:10094600EE0FFF1FEC0DFD1D428153816081718109
:10095600480D591D6A0D7B1D93018201C1010E943C
:10096600BD06E80EF91E2196C430D10534F3C70141
:10097600DF91CF911F910F91FF90EF90DF90CF9075
:10098600BF90AF909F908F907F906F905F904F90A9
:060996003F902F90089530
:10099C000F931F93CF93DF938C01C0E0D0E041C045
:1009AC000097B9F4FE01EE0FFF1FEE0FFF1FEE0FC5
:1009BC00FF1FE80FF91FEE0FFF1FE00FF11F208143
:1009CC0031813695322F222737952795622B732B41
:1009DC0019C0FE01EE0FFF1FEE0FFF1FEE0FFF1FE2
:1009EC00E80FF91FEE0FFF1FE00FF11F208131817F
:1009FC00AC014150510902C0220F331F4A95E2F756
:100A0C00622B732B019604C080E090E060E070E0F4
:100A1C00883091052CF2CE01880F991F0E94ED06AB
:100A2C002196C830D10584F3DF91CF911F910F919E
:020A3C0008951B
:100A3E000F931F93CF93DF93EC018B01AB0161E01A
:100A4E0070E00E9415070097D1F1A80162E070E0F6
:100A5E00CE010E941507009791F1A80163E070E0A6
:100A6E00CE010E941507009751F1A80164E070E0D5
:100A7E00CE010E941507009711F1A80165E070E004
:100A8E00CE010E9415070097D1F0A80166E070E034
:100A9E00CE010E941507009791F0A80167E070E063
:100AAE00CE010E941507009751F0A80168E070E092
:100ABE00CE010E941507009711F081E090E0DF91C2
:080ACE00CF911F910F910895D3
:100AD600EF92FF920F931F93CF93DF937C018B01CD
:100AE600DB0112964D915C9113976D917C9121E0FB
:100AF60030E00E940107C1E0D0E01BC0F80142814E
:100B06005381FE01EE0FFF1FEE0FFF1FE00FF11FD7
:100B160022813381D8016D917C9180819181420F30
:100B2600531F680F791F21E030E0C7010E940107BB
:100B36002196C430D10514F3DF91CF911F910F9107
:060B4600FF90EF900895FE
:100B4C00EF92FF920F931F93CF93DF937C018B0156
:100B5C001AC0B801C7010E94A006C1E0D0E00EC0C7
:100B6C00A80141505109BE01C7010E9415079C0103
:100B7C00A801BE01C7010E9401072196C930D10509
:100B8C007CF301501109023011051CF761E070E093
:100B9C00C7010E94A006DF91CF911F910F91FF908A
:040BAC00EF90089529
:100BB000FC012081318128303105C4F44481558104
:100BC000420F531F48305105A4F440855185420F10
:100BD000531F4830510584F484859585280F391FAB
:100BE0002830310564F080E090E0089580E090E0E6
:100BF000089580E090E0089580E090E0089581E01D
:040C000090E00895E3
:100C0400FC012081318129303105C4F444815581AE
:100C1400420F531F49305105A4F440855185420FBA
:100C2400531F4930510584F484859585280F391F55
:100C34002930310564F080E090E0089580E090E090
:100C4400089580E090E0089580E090E0089581E0C8
:040C540090E008958F
:100C5800FC012081318112161306C4F48481958128
:100C6800820F931F18161906A4F480859185820FA8
:100C7800931F1816190684F484859585280F391F43
:100C88001216130664F080E090E0089580E090E08A
:100C9800089580E090E0089580E090E0089581E074
:040CA80090E008953B
:100CAC00FC012081318122303105B4F084819581A1
:100CBC00820F931F02979CF080859185820F931F62
:100CCC00029784F084859585280F391F22303105D1
:100CDC0064F480E090E0089580E090E0089580E076
:100CEC0090E0089580E090E0089581E090E0089510
:100CFC00A1E21A2EAA1BBB1BFD010DC0AA1FBB1F14
:100D0C00EE1FFF1FA217B307E407F50720F0A21B85
:100D1C00B30BE40BF50B661F771F881F991F1A94F2
:100D2C0069F760957095809590959B01AC01BD011C
:040D3C00CF01089546
:100D4000EF92FF920F931F93CF93DF937C018B0160
:100D5000C1E0D0E008C020E030E0A801BE01C7013A
:100D60000E9401072196C930D105ACF3DF91CF91E4
:0A0D70001F910F91FF90EF9008957E
:100D7A000F931F93CF93DF93EA01420F531F600F24
:100D8A00711F0E941507009729F429972CF081E01A
:100D9A0090E002C081E090E0DF91CF911F910F9126
:020DAA000895AA
:100DAC00052E97FB1EF400940E94560957FD07D0A0
:100DBC000E947E0607FC03D04EF40C945609509505
:0E0DCC004095309521953F4F4F4F5F4F089552
:100DDA00CF93DF93D82FC62F0E944E0980EE0E9430
:100DEA0044098D2F0E9444098C2F0E9444090E94B5
:080DFA006C09DF91CF9108950F
:100E02006150710941505109440F551F440F551F3C
:100E1200440F551F460F571F440F551F840F951F30
:080E2200FC01318320830895D7
:100E2A006150710941505109440F551F440F551F14
:100E3A00440F551F640F751F660F771F860F971F84
:080E4A00FC01808191810895F3
:100E5200FC011582148281E090E0978386831186DB
:100E6200108682E090E093878287158614868FEF42
:080E72009FEF97878687089522
:100E7A00FC0181E090E0958384831782168282E0E8
:100E8A0090E091878087138612868FEF9FEF958770
:080E9A0084871786168608956F
:100EA200FC01158214828FEF9FEF97838683118650
:100EB20010868EEF9FEF938782871586148681E0D6
:080EC20090E0978786870895F0
:100ECA00FC018FEF9FEF95838483178216828EEF42
:100EDA009FEF918780871386128681E090E095873D
:080EEA0084871786168608951F
:100EF20097FB072E16F4009407D077FD09D00E94C5
:100F02008D0707FC05D03EF4909581959F4F08957B
:080F1200709561957F4F089571
:100F1A00AA1BBB1B51E107C0AA1FBB1FA617B70715
:100F2A0010F0A61BB70B881F991F5A95A9F7809531
:080F3A009095BC01CD01089562
:100F4200FC01158214822FEF3FEF3783268381E065
:100F520090E09187808733872287958784871786D9
:040F62001686089552
:100F6600FC0181E090E095838483178216821186C6
:100F760010868FEF9FEF93878287958784871786E2
:040F8600168608952E
:100F8A00FC01158214828FEF9FEF97838683118667
:100F9A00108681E090E093878287958784871786F9
:040FAA00168608950A
:100FAE00FC0181E090E095838483178216822FEFF7
:100FBE003FEF318720871386128615861486978712
:040FCE008687089575
:100FD200FC011582148281E090E09783868311865A
:100FE20010868FEF9FEF9387828795878487178676
:040FF20016860895C2
:100FF600FC0181E090E0958384838FEF9FEF9783D8
:1010060086831186108693878287958784871786BD
:04101600168608959D
:10101A00FC01158214828FEF9FEF9783868381E00C
:10102A0090E09187808713861286958784879787B1
:04103A008687089508
:10103E00FC0181E090E095838483178216821186ED
:10104E001086938782872FEF3FEF35872487978708
:04105E0086870895E4
:10106200FC018FEF9FEF958384831782168211868E
:10107200108621E030E0338722879587848797871F
:0410820086870895C0
:10108600FC0181E090E095838483178216821186A5
:1010960010868FEF9FEF9387828795878487978740
:0410A600868708959C
:1010AA00FC0181E090E09583848317821682118681
:1010BA00108693878287958784878FEF9FEF97871C
:0410CA008687089578
:1010CE00FC018FEF9FEF9583848317821682118622
:1010DE00108681E090E09387828795878487978733
:0410EE008687089554
:1010F200FC018FEF9FEF95838483178216821186FE
:101102001086938782879587848781E090E097870E
:04111200868708952F
:10111600FC018FEF9FEF958384831782168221E06F
:1011260030E03187208713861286958784879787D4
:04113600868708950B
:10113A00FC011582148221E030E037832683118670
:10114A0010868FEF9FEF938782873587248797874B
:04115A0086870895E7
:10115E00FC0181E090E09583848397838683918759
:10116E008087138612868FEF9FEF95878487178669
:04117E001686089534
:10118200FC011582148281E090E0978386831186A8
:1011920010862FEF3FEF3387228735872487978783
:0411A200868708959F
:1011A600FC018FEF9FEF958384831782168221E0DF
:1011B60030E0318720871386128635872487978704
:0411C600868708957B
:1011CA00FC01158214828FEF9FEF97838683118625
:1011DA00108681E090E09387828795878487978736
:0411EA008687089557
:1011EE00FC018FEF9FEF9583848321E030E03783FE
:1011FE0026833187208713861286958784871786E4
:04120E0016860895A3
:10121200FC018FEF9FEF95838483978386831186EA
:101222001086938782871586148681E090E09787DF
:04123200868708950E
:1012360020E030E008C0EFECF7E03197F1F700C0AE
:0E12460000002F5F3F4F28173907ACF30895C3
:10125400A29FB001B39FC001A39F700D811D1124F3
:0E126400911DB29F700D811D1124911D0895E2
:101272000E942A09A59F900DB49F900DA49F800DF6
:06128200911D11240895E6
:101288008093730084E880937400809174008823AD
:04129800E4F70895DA
:10129C0084EA80937400809174008823E4F70895A5
:1012AC0090958095709561957F4F8F4F9F4F0895C6
:1012BC00B7FF0C9439090E943909821B930B0895CE
:0C12CC001092710080E280937000089581
:0812D80084E98093740008957D
:0412E0000C9400006A
:1012E400A107A107A107A1073D0729076507510722
:1012F400B307C507D707E907FB070D081F0831081F
:1013040043085508670879088B089D08AF08C10889
:10131400D308E508F70809090000000000000000F0
:1013240000000000000000000000010001000100B6
:1013340001000100010000000000010000000000A5
:101344000000000001000000000001000000010096
:101354000100000001000000000001000000010085
:101364000100000001000000000001000000000076
:101374000000000001000000000001000100010065
:101384000100010001000000000000000000000056
:101394000000000000000000010001000100010045
:1013A4000100010001000100010000000000000034
:1013B4000000000000000100010000000100010025
:1013C4000100010000000100010000000100000014
:1013D4000000010000000100010000000100000005
:1013E40000000100000001000100000001000100F4
:1013F40001000100000001000100000000000000E5
:1014040000000000000001000100010001000100D3
:081414000100010001000100CC
:04141C0001000000CB
:00000001FF
