:100000000C9446000C9408010C9408010C9408010F
:100010000C9408010C9408010C9408010C9408013C
:100020000C9408010C9408010C9408010C9408012C
:100030000C9408010C9408010C9408010C9408011C
:100040000C9408010C9408010C9408010C9408010C
:100050000C9408010C9408010C9408010C940801FC
:100060000C9408010C9408010C9408010C940801EC
:100070000C9408010C9408010C9408010C940801DC
:100080000C9408010C9408010C94080111241FBE63
:10009000CFEFD0E1DEBFCDBF0E9452000C945000E4
:0400A000F894FFCF02
:1000A4000E94FE000E94F60080EE0E94EC0081E2B5
:1000B4000E94EC000E9404010E94F60080EE0E945F
:1000C400EC0080EA0E94EC000E9404010E94F60009
:1000D40080EE0E94EC0083EE0E94EC000E9404017A
:1000E4000E94F60080EE0E94EC0081E80E94EC0081
:1000F4000E94040160E070E080E090E00E94C9008A
:1001040060E070E082E090E00E94C90060E070E08E
:1001140084E090E00E94C90060E070E086E090E036
:100124000E94C90060E070E088E090E00E94C9008D
:1001340060E070E08AE090E00E94C90060E070E056
:100144008CE090E00E94C90060E070E08EE090E0F6
:100154000E94C90085E08EBDC1E0D0E08CB59DB59C
:1001640089309D4350F01DBC1CBCC034D10519F02E
:10017400CC0FDD1F02C0C1E0D0E0BE0180E090E002
:0E0184000E94C90082E390E00E94DD00E7CFF8
:10019200CF93DF93D82FC62F0E94F60080EE0E94E5
:1001A200EC008D2F0E94EC008C2F0E94EC000E942C
:0801B2000401DF91CF910895D3
:1001BA0020E030E008C0EFECF7E03197F1F700C03B
:0E01CA0000002F5F3F4F28173907ACF3089550
:1001D8008093730084E8809374008091740088236E
:0401E800E4F708959B
:1001EC0084EA80937400809174008823E4F7089566
:0C01FC001092710080E280937000089562
:0802080084E98093740008955D
:040210000C9400004A
:00000001FF
