:100000000C9446000C94DB020C94DB020C94DB0293
:100010000C94DB020C94DB020C94DB020C94DB02EC
:100020000C94DB020C94DB020C94DB020C94DB02DC
:100030000C94DB020C94DB020C94DB020C94DB02CC
:100040000C94DB020C94DB020C94DB020C94DB02BC
:100050000C94DB020C94DB020C94DB020C94DB02AC
:100060000C94DB020C94DB020C94DB020C94DB029C
:100070000C94DB020C94DB020C94DB020C94DB028C
:100080000C94DB020C94DB020C94DB0211241FBEE7
:10009000CFEFD0E1DEBFCDBF0E9452000C945000E4
:0400A000F894FFCF02
:1000A400CF93DF93CDB7DEB7DA950FB6F894DEBF02
:1000B4000FBECDBF0E94D1020E94C90280EE0E94F1
:1000C400BF0281E20E94BF020E94D7020E94C902BD
:1000D40080EE0E94BF0280EA0E94BF020E94D70203
:1000E4000E94C90280EE0E94BF0283EE0E94BF02FA
:1000F4000E94D7020E94C90280EE0E94BF0281E8DA
:100104000E94BF020E94D70260E070E080E090E0AD
:100114000E94610260E070E082E090E00E9461026F
:1001240060E070E084E090E00E94610260E070E0D2
:1001340086E090E00E94610260E070E088E090E078
:100144000E94610260E070E08AE090E00E94610237
:1001540060E070E08CE090E00E94610260E070E09A
:100164008EE090E00E9461021092610081EE87B9F6
:1001740086E886B985E08EBD80E8FE013196DF0110
:10018400982F1D929A95E9F7E058FF4FDF011D92D1
:100194008A95E9F7EE24E394F12CC12CD12C03E0E9
:1001A40010E080EE87B986B1806486B93699FECFB7
:1001B40065B170E081EE87B986B1806486B93699FD
:1001C400FECF85B120E030E015C0C901880F991F2A
:1001D400E1E0F0E0EC0FFD1FE80FF91F40815181D1
:1001E400E1E8F0E0EC0FFD1FE80FF91F51834083B5
:1001F4002F5F3F4F2034310544F36F3B710584F08A
:10020400083011051CF55801BFEFAB1ABB0AA60153
:10021400B501CE0101960E948902892BA1F016C076
:100224006C3371059CF40230110584F0580181E0AF
:10023400A81AB108A601B501CE0101960E9489024F
:10024400892B19F003C0850101C08501E114F10473
:1002540041F1A601B801CE0101960E949D02892BAD
:10026400A1F021E030E0A601B801CE018F579F4FE5
:100274000E94750221E030E0A601B801CE0101968A
:100284000E947502E12CF12C0CC09FEFC91AD90A07
:1002940021E030E0A601B801CE018F579F4F0E94A4
:1002A400750268E070E0CE0101960E94C601892BB8
:1002B40031F068E070E0CE0101960E941202E11470
:1002C400F10439F4EE24E394F12CC12CD12C03E095
:1002D40010E0CE018F579F4F0E94750184EF91E08B
:0602E4000E94B0025ECF93
:1002EA000F931F93CF93DF938C01C0E0D0E041C0FE
:1002FA000097B9F4FE01EE0FFF1FEE0FFF1FEE0F7E
:10030A00FF1FE80FF91FEE0FFF1FE00FF11F2081FB
:10031A0031813695322F222737952795622B732BF9
:10032A0019C0FE01EE0FFF1FEE0FFF1FEE0FFF1F9A
:10033A00E80FF91FEE0FFF1FE00FF11F2081318137
:10034A00AC014150510902C0220F331F4A95E2F70E
:10035A00622B732B019604C080E090E060E070E0AD
:10036A00883091052CF2CE01880F991F0E946102F4
:10037A002196C830D10584F3DF91CF911F910F9157
:02038A000895D4
:10038C000F931F93CF93DF93EC018B01AB0161E0D3
:10039C0070E00E9489020097D1F1A80162E070E040
:1003AC00CE010E948902009791F1A80163E070E0F0
:1003BC00CE010E948902009751F1A80164E070E01F
:1003CC00CE010E948902009711F1A80165E070E04E
:1003DC00CE010E9489020097D1F0A80166E070E07E
:1003EC00CE010E948902009791F0A80167E070E0AD
:1003FC00CE010E948902009751F0A80168E070E0DC
:10040C00CE010E948902009711F081E090E0DF910B
:08041C00CF911F910F9108958B
:10042400EF92FF920F931F93CF93DF937C018B0185
:100434001AC0B801C7010E944402C1E0D0E00EC056
:10044400A80141505109BE01C7010E9489029C01C3
:10045400A801BE01C7010E9475022196C930D105C9
:100464007CF301501109023011051CF761E070E0C2
:10047400C7010E944402DF91CF911F910F91FF9019
:04048400EF90089558
:10048800EF92FF920F931F93CF93DF937C018B0121
:10049800C1E0D0E008C020E030E0A801BE01C701FB
:1004A8000E9475022196C930D105ACF3DF91CF9136
:0A04B8001F910F91FF90EF9008953F
:1004C200CF93DF93D82FC62F0E94C90280EE0E94DD
:1004D200BF028D2F0E94BF028C2F0E94BF020E947A
:0804E200D702DF91CF910895CC
:1004EA006150710941505109440F551F440F551F5E
:1004FA00440F551F460F571F440F551F840F951F52
:08050A00FC01318320830895F8
:100512006150710941505109440F551F440F551F35
:10052200440F551F640F751F660F771F860F971FA5
:08053200FC0180819181089514
:10053A00CF93DF93EA014F5F5F4F0E9489020097D2
:10054A0029F428972CF081E090E002C081E090E045
:06055A00DF91CF9108952E
:1005600020E030E008C0EFECF7E03197F1F700C091
:0E05700000002F5F3F4F28173907ACF30895A6
:10057E008093730084E880937400809174008823C4
:04058E00E4F70895F1
:1005920084EA80937400809174008823E4F70895BC
:0C05A2001092710080E2809370000895B8
:0805AE0084E9809374000895B4
:0405B6000C940000A1
:00000001FF
