:100000000C9446000C948C000C948C000C948C0086
:100010000C948C000C948C000C948C000C948C0030
:100020000C948C000C948C000C948C000C948C0020
:100030000C948C000C948C000C948C000C948C0010
:100040000C948C000C948C000C948C000C948C0000
:100050000C948C000C948C000C948C000C948C00F0
:100060000C948C000C948C000C948C000C948C00E0
:100070000C948C000C948C000C948C000C948C00D0
:100080000C948C000C948C000C948C0011241FBEDA
:10009000CFEFD0E1DEBFCDBF0E9452000C945000E4
:0400A000F894FFCF02
:1000A4008FEF81BBC0E0D0E00EC081E090E00C2E69
:1000B40002C0880F991F0A94E2F782BB82E390E0A2
:1000C4000E947D002196C830D1057CF3C0E0D0E0C9
:1000D4000EC080E890E00C2E02C0959587950A9496
:1000E400E2F782BB82E390E00E947D002196C83053
:0600F400D1057CF3D7CF1B
:1000FA0020E030E008C0EFECF7E03197F1F700C0FC
:0E010A0000002F5F3F4F28173907ACF3089510
:040118000C94000043
:00000001FF
